:100B1B00081A000100020004000802180001040872
:100B2B0000003039040C000030390410000030395B
:060B3B0004140000303933
:100B8D00758901758A18758CFCD28C308DFDC28CDF
:030B9D00C28D22E4
:0D0AF30025E0241AF808E6F5907FE87E0360
:100B0000E4FDFCC3ED9FEE6480F8EC648098500A2D
:0A0B1000120B8D0DBD00010C80E9F1
:010B1A0022B8
:10080000AF0BAE0AAD09AC087806120B55EF650BBD
:10081000FFEE650AFEED6509FDEC6508FC780D123A
:100820000B428F608E5F8D5E8C5DE50B54FEFFE5A5
:100830000AFEE509FDE508FC7812120B55EF65602C
:10084000F50BEE655FF50AED655EF509EC655DF5A6
:1008500008AF0FAE0EAD0DAC0C7802120B55EF6564
:100860000FFFEE650EFEED650DFDEC650CFC781BD3
:10087000120B428F608E5F8D5E8C5DE50F54F8FF2A
:10088000E50EFEE50DFDE50CFC7802120B55EF655B
:1008900060F50FEE655FF50EED655EF50DEC655DDF
:1008A000F50CAF13AE12AD11AC10780D120B55EF65
:1008B0006513FFEE6512FEED6511FDEC6510FC7829
:1008C00015120B428F608E5F8D5E8C5DE51354F0C8
:1008D000FFE512FEE511FDE510FC7807120B55EF60
:1008E0006560F513EE655FF512ED655EF511EC657B
:1008F0005DF510AF17AE16AD15AC147803120B559D
:10090000EF6517FFEE6516FEED6515FDEC6514FC51
:10091000780C120B428F608E5F8D5E8C5DE51754F4
:1009200080FFE516FEE515FDE514FC780D120B556C
:10093000EF6560F517EE655FF516ED655EF515EC94
:10094000655DF514E50B650FFFEF6513FFEF6517A8
:09095000FFEF5403FFE4FEFDFC7F
:01095900227B
:030B6800E4FBFAB1
:100B6B001208008F5C8E5B8D5A8C59EB25E0242488
:060B7B00F8A60608A6071B
:0B0B81000BBB00010AEB64194A70DF97
:010B8C002246
:040BA00030A4FD225E
:1009E600E4F590D2B6F522F523C3E5239519E5186B
:1009F6006480F8E5226480985019E52325E02424D4
:100A0600F808E6120AF3E4F5900523E52370DA0503
:100A16002280D6E4F5900519E5197002051824FF21
:0E0A2600F558E51834FFF5578519A0C2B62221
:100A7700ED25E02424F808E6F925E0241AF8E6FA3B
:100A870008E6B5070EEEB5020A75A016D2B37E00CA
:100A97007F0122EFF4F590E925E0241AF808E6F53E
:0F0AA700A0751800751901D2B5C2B3E4FEFF2285
:100A3400C2B3C2B5E4F522F523C3E5239558E522F4
:100A44009557502EE580F460FBE580F4F556E5807B
:100A5400F4120AFAE580B4FFFBAF567E00AD23AC76
:100A640022120A77EF4E600A0523E52370CB052294
:030A740080C72216
:100AB600E4F5B0F5A0120B68E4F590F522F523E510
:100AC60023120AF3E4F5900523E52370020522C3F9
:100AD6009404E5226480948040E57580FFD2B712C5
:0D0AE6000BA01209E6120AFC120A3480ED82
:0300000002095A98
:0C095A00787FE4F6D8FD7581600209A1E9
:100B4200E8600FECC313FCED13FDEE13FEEF13FF91
:030B5200D8F122B5
:100B5500E8600FEFC333FFEE33FEED33FDEC33FCFE
:030B6500D8F122A2
:10096600020AB6E493A3F8E493A34003F68001F2E7
:1009760008DFF48029E493A3F85407240CC8C33392
:10098600C4540F4420C8834004F456800146F6DF61
:10099600E4800B0102040810204080900B1BE47ECB
:1009A600019360BCA3FF543F30E509541FFEE49356
:1009B600A360010ECF54C025E060A840B8E493A31D
:1009C600FAE493A3F8E493A3C8C582C8CAC583CA48
:1009D600F0A3C8C582C8CAC583CADFE9DEE780BE00
:010B410000B3
:00000001FF
